:100000000C9462000C948A000C948A000C948A0070
:100010000C948A000C948A000C948A000C948A0038
:100020000C948A000C948A000C948A000C94CD03E2
:100030000C948A000C948A000C948A000C948A0018
:100040000C942B030C948A000C949B030C94750362
:100050000C948A000C948A000C948A000C948A00F8
:100060000C948A000C948A000000000023002600F3
:10007000290000000000240027002A0000000000E2
:10008000250028002B0004040404040404040202D4
:100090000202020203030303030301020408102007
:1000A0004080010204081020010204081020000012
:1000B0000008000201000003040700000000000027
:1000C0000000CE0411241FBECFEFD8E0DEBFCDBFAD
:1000D00011E0A0E0B1E0E0E1F1E102C005900D9295
:1000E000A032B107D9F721E0A0E2B1E001C01D9232
:1000F000A13FB207E1F710E0C2E6D0E004C02197CB
:10010000FE010E948008C136D107C9F70E942B0565
:100110000C9486080C9400008F929F92AF92BF922D
:10012000FF920F931F93CF93DF93F090EE012BE09C
:100130002F1508F44CC02091F00108E512E0021BD5
:10014000110927FD1395000F111F000F111F20919A
:10015000EF01C8E8D0E0C21BD10927FDD395CC0F31
:10016000DD1FCC0FDD1F4E010D2E000CAA08BB08B1
:100170009801012E000C440B550B281939094A0926
:100180005B09DC010E940A0724EB30E040E050E00C
:100190000E94E006820E931EA41EB51E8C169D06BC
:1001A0002CF0E801801691060CF4E4012297CC0FA4
:1001B000DD1F2FB7F8948F2D90E0FC01EE0FFF1F8D
:1001C000E80FF91FE753FE4FD283C1832FBFDF91A2
:1001D000CF911F910F91FF90BF90AF909F908F9004
:1001E000089590E0FC01E255FF4F2491FC01E65692
:1001F000FF4F3491FC01EA57FF4FE491EE23C9F021
:10020000222339F0233001F1A8F4213019F12230F2
:1002100029F1F0E0EE0FFF1FE458FF4FA591B491D4
:100220008FB7F894EC91611126C030953E233C9332
:100230008FBF08952730A9F02830C9F0243049F73E
:10024000809180008F7D03C0809180008F778093A4
:100250008000DFCF84B58F7784BDDBCF84B58F7D01
:10026000FBCF8091B0008F778093B000D2CF809188
:10027000B0008F7DF9CF3E2BDACFCF93DF9390E0A4
:10028000FC01E656FF4F24918A579F4FFC01849151
:100290008823D1F090E0880F991FFC01EE58FF4FA2
:1002A000A591B491FC01E458FF4FC591D49161111F
:1002B0000EC09FB7F8948C91E22FE0958E238C931B
:1002C0002881E223E8839FBFDF91CF9108958FB704
:1002D000F894EC91E22BEC938FBFF6CF3FB7F894F4
:1002E0008091280190912901A0912A01B0912B01C0
:1002F00026B5A89B05C02F3F19F00196A11DB11D81
:100300003FBFBA2FA92F982F8827BC01CD01620FBC
:10031000711D811D911D42E0660F771F881F991F77
:100320004A95D1F708958F929F92AF92BF92CF9244
:10033000DF92EF92FF920E946E014B015C0184EF0D
:10034000C82EDD24D394E12CF12C0E946E01681993
:1003500079098A099B09683E734081059105A8F3D4
:1003600021E0C21AD108E108F10888EE880E83E086
:10037000981EA11CB11CC114D104E104F10429F799
:10038000FF90EF90DF90CF90BF90AF909F908F90B5
:100390000895AF92BF92CF92DF92EF92FF920F93A8
:1003A0001F93CF93DF936C017B018B01040F151F0B
:1003B000EB015E01AE18BF08C017D10759F0699173
:1003C000D601ED91FC910190F081E02DC6010995D7
:1003D000892B79F7C501DF91CF911F910F91FF9084
:1003E000EF90DF90CF90BF90AF900895FC01538DB8
:1003F000448D252F30E0842F90E0821B930B5417FF
:1004000010F0CF96089501970895FC01918D828D8B
:10041000981761F0A28DAE0FBF2FB11D5D968C9124
:10042000928D9F5F9F73928F90E008958FEF9FEF63
:100430000895FC01918D828D981731F0828DE80F1F
:10044000F11D858D90E008958FEF9FEF0895FC01D9
:10045000918D228D892F90E0805C9F4F821B9109A6
:100460008F73992708958CE291E00E94270221E082
:10047000892B09F420E0822F089580E090E0892BF9
:1004800029F00E94330281110C9400000895FC01B0
:10049000A48DA80FB92FB11DA35ABF4F2C91848DE5
:1004A00090E001968F739927848FA689B7892C9342
:1004B000A089B1898C91837080648C93938D848D95
:1004C000981306C00288F389E02D80818F7D808398
:1004D0000895EF92FF920F931F93CF93DF93EC0158
:1004E00081E0888F9B8D8C8D98131AC0E889F989DB
:1004F000808185FF15C09FB7F894EE89FF896083DE
:10050000E889F98980818370806480839FBF81E05E
:1005100090E0DF91CF911F910F91FF90EF900895A0
:10052000F62E0B8D10E00F5F1F4F0F731127E02E7B
:100530008C8D8E110CC00FB607FCFACFE889F989B3
:10054000808185FFF5CFCE010E944702F1CFEB8D70
:10055000EC0FFD2FF11DE35AFF4FF0829FB7F89487
:100560000B8FEA89FB8980818062CFCFCF93DF93A5
:10057000EC01888D8823B9F0AA89BB89E889F989BB
:100580008C9185FD03C0808186FD0DC00FB607FCF0
:10059000F7CF8C9185FFF2CF808185FFEDCFCE0123
:1005A0000E944702E9CFDF91CF910895FC010190AD
:1005B0000020E9F73197AF01481B590BBC018CE2D1
:1005C00091E00C94C9010F931F9360E089E00E94B1
:1005D000F10083E090E00197F1F761E089E00E948B
:1005E000F10083E290E00197F1F760E089E00E947A
:1005F000F100E2EAF0E06491EEE8F0E0E491F0E08E
:10060000EE0FFF1FE859FF4F8591949100E412E42B
:100610002FE030E0462F0E948904611571058105A5
:10062000910529F06F5F7F4F8F4F9F4F9F700E9402
:100630007B072FE632E143E05DE30E94DF0720E025
:1006400030E040E05FE30E94DF070E944307CB01F8
:100650001F910F9108951F920F920FB60F921124C0
:100660002F933F938F939F93AF93BF9380912401D8
:1006700090912501A0912601B0912701309123018D
:1006800023E0230F2D3758F50196A11DB11D2093AE
:1006900023018093240190932501A0932601B09318
:1006A00027018091280190912901A0912A01B09100
:1006B0002B010196A11DB11D809328019093290162
:1006C000A0932A01B0932B01BF91AF919F918F917D
:1006D0003F912F910F900FBE0F901F90189526E815
:1006E000230F0296A11DB11DD2CF1F920F920FB6FC
:1006F0000F9211242F933F934F935F936F937F93A8
:100700008F939F93AF93BF93EF93FF938CE291E00E
:100710000E944702FF91EF91BF91AF919F918F91FE
:100720007F916F915F914F913F912F910F900FBEED
:100730000F901F9018951F920F920FB60F921124D1
:100740002F938F939F93EF93FF93E0913C01F09150
:100750003D018081E0914201F091430182FD1BC087
:100760009081809145018F5F8F73209146018217A0
:1007700041F0E0914501F0E0E45DFE4F958F8093FC
:100780004501FF91EF919F918F912F910F900FBE97
:100790000F901F9018958081F4CF1F920F920FB683
:1007A0000F9211242F933F934F935F936F937F93F7
:1007B0008F939F93AF93BF93CF93DF93EF93FF9369
:1007C00080912001C091ED01D0E087FF24C01092FC
:1007D000850010928400809120018F5F809320011A
:1007E00080912001082E000C990B8C179D0724F492
:1007F000809120018C30C4F180918400909185001B
:10080000049680349C4908F47AC0809184009091C9
:100810008500049676C080912001082E000C990B6B
:100820008C179D07C4F6E09120018E2FEE0F990BD7
:10083000FC01EE0FFF1FE80FF91FE753FE4F808109
:1008400086FFC9CFE09120018E2FEE0F990BFC019E
:10085000EE0FFF1FE80FF91FE753FE4F808160E0A6
:100860008F730E94F100B7CF2091840030918500F2
:10087000E09120018E2FEE0F990BFC01EE0FFF1F70
:10088000E80FF91FE753FE4F81819281820F931F7A
:100890009093890080938800E09120018E2FEE0FC5
:1008A000990BFC01EE0FFF1FE80FF91FE753FE4FF6
:1008B000808186FF11C0E09120018E2FEE0F990BF1
:1008C000FC01EE0FFF1FE80FF91FE753FE4F808179
:1008D00061E08F730E94F100FF91EF91DF91CF9162
:1008E000BF91AF919F918F917F916F915F914F9148
:1008F0003F912F910F900FBE0F901F90189580E49D
:100900009CE990938900809388008FEF8093200169
:10091000E3CFCF92DF92EF92FF920F931F93E82FD6
:10092000F92F05C0015011092109310961F19081A8
:1009300096239417B9F305C0015011092109310913
:1009400011F1908196239413F7CFC12CD12CE12C77
:10095000F12C0AC08FEFC81AD80AE80AF80A0C1559
:100960001D052E053F0579F080818623841791F3BC
:100970006C2D7D2D8E2D9F2D1F910F91FF90EF904F
:10098000DF90CF90089560E070E080E090E01F91EC
:100990000F91FF90EF90DF90CF90089510922F016C
:1009A00010922E0188EE93E0A0E0B0E08093300139
:1009B00090933101A0933201B093330184E091E030
:1009C00090932D0180932C0185EC90E09093390158
:1009D0008093380184EC90E090933B0180933A013E
:1009E00080EC90E090933D0180933C0181EC90E09D
:1009F00090933F0180933E0182EC90E090934101FF
:100A00008093400186EC90E09093430180934201F3
:100A10001092450110924601109247011092480130
:100A20008091ED018C3098F491E0980F9093ED0156
:100A30008093EE0190E0FC01EE0FFF1FE80FF91F1D
:100A4000E753FE4F88EB9BE09283818308958FEFFD
:100A50008093EE010895CF93DF93CDB7DEB7A197D2
:100A60000FB6F894DEBF0FBECDBF789484B5826018
:100A700084BD84B5816084BD85B5826085BD85B542
:100A8000816085BD80916E00816080936E001092C0
:100A9000810080918100826080938100809181003B
:100AA00081608093810080918000816080938000CC
:100AB0008091B10084608093B1008091B00081602A
:100AC0008093B00080917A00846080937A00809156
:100AD0007A00826080937A0080917A0081608093AE
:100AE0007A0080917A00806880937A001092C10029
:100AF00061E087E00E943D0161E086E00E943D01E7
:100B000061E085E00E943D0161E084E00E943D01DA
:100B100061E089E00E943D0160E088E00E943D01C3
:100B20008091EE018C3008F051C061E08AE00E94B3
:100B30003D018091EE01282F30E0F901EE0FFF1FFB
:100B4000E20FF31FE753FE4F9081907C9A609083F1
:100B50001092EF011092F0012CE0622F0E947408B5
:100B6000829FB001112430E020E0AB01420F531FFF
:100B7000FA01EE0FFF1FE40FF51FE753FE4F9081C0
:100B800096FD16C02F5F3F4F2C30310571F7811154
:100B90000FC01092800082E0809381001092850047
:100BA00010928400B19A80916F00826080936F00F0
:100BB000E091EE018E2F90E0FC01EE0FFF1FE80F99
:100BC000F91FE753FE4F808180648083E0913C01F0
:100BD000F0913D0182E08083E0913801F09139018C
:100BE0001082E0913A01F0913B018FEC80831092EA
:100BF0004401E0914001F091410186E08083E09161
:100C00003E01F0913F01808180618083E0913E014F
:100C1000F0913F01808188608083E0913E01F091F6
:100C20003F01808180688083E0913E01F0913F0127
:100C300080818F7D80838AE0882E912CA12CB12C1D
:100C400000E010E08AE590E00E948C000E94930191
:100C50000E94E302909322018093210182E191E0BE
:100C60000E94D602C0902101D09022010D2C000CD0
:100C7000EE08FF08F7FE73C06DE28CE291E00E947F
:100C8000690222273327A9012C193D094E095F0962
:100C900019A2CE0181967C01CA01B901A501940176
:100CA0000E941207605DF70162937F0121153105F3
:100CB0004105510589F7E114F10419F0C7010E94BB
:100CC000D6028DE191E00E94D6028091210190919F
:100CD0002201883C91050CF062C060E087E00E9430
:100CE000F10060E086E00E94F10060E085E00E9493
:100CF000F10060E084E00E94F10090E080E00E945A
:100D00008C000E9493010E94E3027C0184EB90E03E
:100D10000E948C000E9493010E94E302E816F906EB
:100D2000A4F561E087E00E94F10060E086E00E94A7
:100D3000F10060E085E00E94F10060E084E00E9444
:100D4000F1000E9493010115110509F47BCF0E9467
:100D50003302882309F476CF0E94000073CFA701E5
:100D6000960119A2CE0181967C01CA01B901A501A3
:100D700094010E941207605DF70162937F012115C3
:100D800031054105510589F796CF60E087E00E9463
:100D9000F10060E086E00E94F10061E0CBCF61E00D
:100DA00087E00E94F10060E086E00E94F10061E0CF
:100DB00085E00E94F10060E084E00E94F100C3CF72
:100DC000052E97FB1EF400940E94F70657FD07D0EE
:100DD0000E94120707FC03D04EF40C94F7065095BE
:100DE0004095309521953F4F4F4F5F4F0895909517
:100DF0008095709561957F4F8F4F9F4F08950E940A
:100E00003407A59F900DB49F900DA49F800D911D58
:100E100011240895B7FF0C94FF060E94FF06821B61
:100E2000930B0895A1E21A2EAA1BBB1BFD010DC056
:100E3000AA1FBB1FEE1FFF1FA217B307E407F5078A
:100E400020F0A21BB30BE40BF50B661F771F881F66
:100E5000991F1A9469F760957095809590959B01FC
:100E6000AC01BD01CF010895A29FB001B39FC001A5
:100E7000A39F700D811D1124911DB29F700D811DC6
:100E80001124911D08950E944A076894B1110C9491
:100E9000D90708950E94BE0788F09F5798F0B92F90
:100EA0009927B751B0F0E1F0660F771F881F991F9F
:100EB0001AF0BA95C9F714C0B13091F00E94D80762
:100EC000B1E008950C94D807672F782F8827B85F72
:100ED00039F0B93FCCF3869577956795B395D9F7F7
:100EE0003EF490958095709561957F4F8F4F9F4F01
:100EF0000895E89409C097FB3EF49095809570950D
:100F000061957F4F8F4F9F4F9923A9F0F92F96E955
:100F1000BB279395F695879577956795B795F111CA
:100F2000F8CFFAF4BB0F11F460FF1BC06F5F7F4F67
:100F30008F4F9F4F16C0882311F096E911C0772379
:100F400021F09EE8872F762F05C0662371F096E882
:100F5000862F70E060E02AF09A95660F771F881F51
:100F6000DAF7880F9695879597F9089557FD905869
:100F7000440F551F59F05F3F71F04795880F97FB5D
:100F8000991F61F09F3F79F0879508951216130617
:100F90001406551FF2CF4695F1DF08C01616170646
:100FA0001806991FF1CF869571056105089408957B
:100FB000E894BB2766277727CB0197F908950E940D
:100FC000F2070C9463080E94550838F00E945C08F0
:100FD00020F0952311F00C944C080C945208112425
:100FE0000C94D9070E94B60770F3959FC1F3950F33
:100FF00050E0551F629FF001729FBB27F00DB11D9D
:10100000639FAA27F00DB11DAA1F649F6627B00D2C
:10101000A11D661F829F2227B00DA11D621F739F15
:10102000B00DA11D621F839FA00D611D221F749F23
:101030003327A00D611D231F849F600D211D822F6A
:10104000762F6A2F11249F5750409AF0F1F0882391
:101050004AF0EE0FFF1FBB1F661F771F881F9150BE
:101060005040A9F79E3F510580F00C944C080C9419
:10107000D9075F3FE4F3983ED4F38695779567955B
:10108000B795F795E7959F5FC1F7FE2B880F911DE8
:101090009695879597F9089597F99F6780E870E08E
:1010A00060E008959FEF80EC089500240A941616DE
:1010B000170618060906089500240A941216130646
:1010C000140605060895092E0394000C11F48823D4
:1010D00052F0BB0F40F4BF2B11F460FF04C06F5FF0
:1010E0007F4F8F4F9F4F0895991B79E004C0991F40
:1010F000961708F0961B881F7A95C9F78095089572
:10110000EE0FFF1F0590F491E02D0994F894FFCFA6
:10111000000000006902C901F601B60227020502BB
:10112000190244697374616E63653A20000D0A0008
:00000001FF
